:020000040000FA
:10000000381D0020E901000021A200009501000038
:1000100000000000000000000000000000000000E0
:10002000000000000000000000000000FB010000D4
:100030000000000000000000FF0100003D3500004E
:100040000302000005020000299200003D9200001A
:100050000B0200000D0200000F0200001102000060
:100060001302000015020000170200001902000030
:100070001B0200001D020000993300002102000055
:1000800023020000250200002702000029020000D0
:100090002B0200002D0200002F02000031020000A0
:1000A0003302000035020000370200003902000070
:1000B0003B0200003D0200003F0200004102000040
:1000C0007FFFE8FF00F002F800F054F80CA030C801
:1000D000083824182D18A246671EAB4654465D46C4
:1000E000AC4201D100F046F87E460F3E0FCCB6463A
:1000F0000126334200D0FB1AA246AB4633431847D1
:100100001CAD00003CAD00000023002400250026AB
:10011000103A01D378C1FBD8520700D330C100D5C3
:100120000B60704710B5662902D10AF069FA10BD5C
:1001300003681B0A01D380231943642902D100F00C
:10014000F1F810BD782902D100F05AF910BDE42968
:1001500002D100F01DF910BD002010BD1FB502F046
:100160000FF80400002000210AF066F8E0601FBDCF
:1001700010B510BD02F0C2FB1146FFF7EFFF09F00A
:10018000F7F902F0DAFB03B4FFF7F2FF03BC03F068
:10019000E1FC000004207146084202D0EFF3098020
:1001A00001E0EFF308807146004A1047E590000037
:1001B00070B505460C46164602E00FCC0FC5103E42
:1001C000102EFAD2082E02D303CC03C5083E042E0B
:1001D00007D301CC01C5361F03E021782970641CC8
:1001E0006D1C761EF9D270BD19488047194800472A
:1001F000FEE7FEE7FEE7FEE7FEE7FEE7FEE7FEE7D7
:10020000FEE7FEE7FEE7FEE7FEE7FEE7FEE7FEE7C6
:10021000FEE7FEE7FEE7FEE7FEE7FEE7FEE7FEE7B6
:10022000FEE7FEE7FEE7FEE7FEE7FEE7FEE7FEE7A6
:10023000FEE7FEE7FEE7FEE7FEE7FEE7FEE7FEE796
:10024000FEE7000004480549054A064B70470000D8
:100250006D350000C500000038090020381D002061
:10026000380D0020380D00204343514330B55C1851
:10027000010C130C0D4692B25D4380B251432C1910
:10028000054655430A0C09044D1962415843010CB7
:1002900000044019514130BD70B500252C46AD1AFF
:1002A0009C4112DA00252C462D1A8C4102DA01F00D
:1002B000AEFA70BD002440428C41214601F0A7FAFD
:1002C000002440428C41214619E000252C462D1A7D
:1002D0008C410ADA002452429C41234601F097FAED
:1002E000002440428C41214670BD002452429C4172
:1002F0004042234600248C41214601F088FA002424
:1003000052429C41234670BD0FB4054910B503AA63
:10031000029801F06DFD10BC08BC04B01847000045
:100320000C000020F7B5002575291068009914A667
:1003300011D0C046C046002802DA404211A608E0AB
:10034000009909688A0701D50FA602E0490704D57C
:100350000EA6012501E0C046C046009F00242437B8
:1003600004E001F059FD30313955641C0028F8D102
:100370002B4632462146009801F0D5FAFEBD00001A
:10038000000000002D0000002B00000020000000F5
:10039000F7B5D21D0025D20815A6D200F52905CA49
:1003A00011D0002A05DA00214042914111A60A46E7
:1003B00008E0009909688B0701D50FA602E04907FC
:1003C00001D50EA601251146009F0024243704E024
:1003D00001F0E0F930323A55641C02460A43F7D185
:1003E0002B4632462146009801F09DFAFEBD0000E2
:1003F000000000002D0000002B0000002000000085
:1004000070B504460D4621461068C046C046218896
:10041000090502D50F4A7A4402E00E4A7A440E32A8
:1004200023460021243305E006070009360F965DB8
:100430005E54491C0028F7D120780023000705D519
:10044000702D03D0002901D002231132204601F083
:100450006AFA70BD62A60000F3B50446002081B0C0
:1004600020622046E1688847002872D0252802D003
:100470006268A168ABE0594F00267F442046E168DE
:1004800088472028054608DB312D06D27819203808
:100490000078002801D00643F0E7B00701D504201A
:1004A00086430020E0610746A0612A2D0AD0284635
:1004B00003F048FB002827D0B8000019303D009019
:1004C000856119E00298BA00121902C89161029080
:1004D0002046E1688847012F054617D1E0690028CA
:1004E0001FDA202086431CE000980A2180694843D7
:1004F00000994019303888612046E16888470546F0
:1005000003F020FB0028EFD1012F0AD02E2D08D1B7
:100510002046E16888470546202006437F1C022FBD
:10052000C3DBA069002803DA4042A0610120064332
:10053000F00701D0102086436C2D0BD0682D09D018
:100540004C2D3CD06A2D38D0742D38D07A2D36D031
:1005500016E040E0E1682F4620468847B84205464D
:1005600009D16C2F29D001208002E1680643204682
:100570008847054604E06C2F1DD0FF20013006435C
:10058000002D28D028464138192803D80120C00260
:1005900006432035204626602946029A1646FFF774
:1005A000C1FD002810D001280BD0F61DF008C000B6
:1005B0000830029055E74020E1E78020D5E7002091
:1005C000D3E7361D02964CE762682846A16890473B
:1005D000206A401C44E7206AFEBD000026A60000F9
:1005E000F8B5042A2CD3830712D00B78491C03706A
:1005F000401C521E83070BD00B78491C0370401C13
:10060000521E830704D00B78491C0370401C521EF5
:100610008B079B0F05D0C91ADF002023DE1B08C9FA
:100620000AE0FFF7C5FDF8BD1D4608C9FD401C46A0
:10063000B4402C4310C0121F042AF5D2F308C91A83
:10064000521EF0D40B78491C0370401C521EEAD491
:100650000B78491C0370401C012AE4D4097801700E
:10066000F8BD01E004C0091F0429FBD28B0701D5A6
:100670000280801CC90700D00270704700290BD08F
:10068000C30702D00270401C491E022904D383070D
:1006900002D50280801C891EE3E70022EEE70022DB
:1006A000DFE7002203098B422CD3030A8B4211D3CC
:1006B00000239C464EE003460B433CD400224308F3
:1006C0008B4231D303098B421CD3030A8B4201D3E3
:1006D00094463FE0C3098B4201D3CB01C01A52417B
:1006E00083098B4201D38B01C01A524143098B42CB
:1006F00001D34B01C01A524103098B4201D30B01B4
:10070000C01A5241C3088B4201D3CB00C01A5241D8
:1007100083088B4201D38B00C01A524143088B429D
:1007200001D34B00C01A5241411A00D20146524136
:10073000104670475DE0CA0F00D04942031000D355
:100740004042534000229C4603098B422DD3030AAA
:100750008B4212D3FC22890112BA030A8B420CD3BA
:10076000890192118B4208D3890192118B4204D3E3
:1007700089013AD0921100E08909C3098B4201D363
:10078000CB01C01A524183098B4201D38B01C01A9D
:10079000524143098B4201D34B01C01A5241030914
:1007A0008B4201D30B01C01A5241C3088B4201D3C3
:1007B000CB00C01A524183088B4201D38B00C01A70
:1007C0005241D9D243088B4201D34B00C01A524147
:1007D000411A00D20146634652415B10104601D3D4
:1007E0004042002B00D54942704763465B1000D35E
:1007F000404201B50020C046C04602BD7047704768
:10080000704700000246C80FC00781434B0030B557
:100810004B405B009B0D20D01923DB06C918012338
:100820001B05994220DB0324A40704251346AB4093
:100830000BD3002B04D1EB0613409B00E34204D4FE
:1008400001246407002312195941FF231B05994213
:100850000BD2C9000143500F09E0CB0204D501437C
:100860000803024305D0054830BDFF21C9050843F0
:1008700030BD084607210905884330BD0000C07F10
:10088000F0B50C46871A9C410D46861A9D4103D24D
:10089000C01BA141D21963410D0D1F0DC94EEC1BA8
:1008A000AE435CD07F057F0D0026002F51D02D0573
:1008B000AC46A943DD020123ED0A1B051D4320239D
:1008C0001B1B24D41746E740381871412F46E740D8
:1008D000CC199D402818314661410C0D27D1614447
:1008E0009A4013D50023401C594152000ED14008B4
:1008F000400001224B005205D34207D30520400798
:10090000C14201D5B04900E0B0493046F0BD6B00AE
:10091000002A00D001229A181F23203C1B1B01D55E
:10092000002302E0E540281871410C0DD7D00124C6
:1009300024050919C407CD0740084908E40F2843D6
:100940006144002CD5D00024401C61419A40D0D194
:10095000CDE76A05520DD9D1C90FC907D5E79C4D1E
:100960004E00002801D0012400E0002434195F006B
:10097000002A01D0012600E00026BE19954FAC42A6
:100980000CD8AE420AD8B44206D001256D05EC421F
:10099000BCD010461946F0BD9942FCD00020394623
:1009A000F0BDF0B51FB40C460F46811A9F41254695
:1009B000861A9D4106D20125ED076F40401ABC41C1
:1009C00052187B41210D1E0D8D1BAC467D4D8D4374
:1009D0007ED075056D0D7CD00D05AE46AC431B0376
:1009E0001B0B794D52429D41202366469B1B14D31D
:1009F0001746F740381800260090744160462F468D
:100A00000741E41900989D402818664116D47146A4
:100A100071189A4025D5012320E093182A466A418F
:100A20005200002B00D0521C1E23203E9B1B002B8B
:100A300061DD3541EE1728186641E8D5001876418A
:100A40005B1C9A4000D3401C4B05F3181524E3406F
:100A500010D3002B52D071467118D30FC01802D397
:100A6000491C05B0F0BD0123DB079A42F9D14008CB
:100A70004000F6E701225205B21801D1002853D0F8
:100A80000123CC0ADB029943891E002A08D1020CFB
:100A900003D0020C0004103902E002460020203985
:100AA0000023550B05D112020823550B01D1520129
:100AB0000D23550C01D112011B1DD50C01D1920043
:100AC0009B1C150D01D152005B1C2025EE1A01E084
:100AD0002CE022E00546F54015439840CA1AE1078C
:100AE00069181305C918002ABBDA03204007081843
:100AF000C10FC9070FE071466118B2E7F10740085E
:100B00000843711071444A000CD001235B059A42DE
:100B1000A7D2C90FC9070020A3E74905490D26D16F
:100B2000002001E00028F4D100219AE7284D66005A
:100B3000002801D0012100E0002171185F00002A87
:100B400001D0012600E00026BE19224FA94210D88C
:100B5000AE420ED8B14208D001256D05E94206D05B
:100B60001946A802414010467BE79C4201D021462D
:100B700077E70020394674E710B50C465C4005D590
:100B80000124E4076340FFF70CFF10BDFFF778FE78
:100B900010BD30B40C465C4004D50124E40763402A
:100BA00030BC6DE630BCFCE670B50124E407614062
:100BB0000D465D4002D4FFF763FE70BD6340FFF752
:100BC000F0FE70BDFF0700000000F0FF0000F07FA6
:100BD0000000E0FF0000F87FF0B5F94D0C091E0998
:100BE0002C402E402F468BB0A7437DD0B543FCD080
:100BF000002E7AD0002CFCD00D465D40ED0F254331
:100C0000AC1BFF25AD0464190894C502440DC9024C
:100C10002143500DDC0204430120C007014304437B
:100C2000D2020191200C110C00958C460104234640
:100C30008B430A9161460904E24D8A430991010AF6
:100C40007D4449198039097805464D4301266D18C0
:100C5000F605751B6943C90C640B891C4C43641869
:100C6000B5012C1B250C2E04B4434C434D43210CE1
:100C7000691889090591009DE90701D00121C9077B
:100C800004912C4601996708CD072F434C08059D18
:100C9000E10B4D432D0C29466646754302950D46E2
:100CA00045432E46029D7D1BB44100950D465D4394
:100CB00001942C0C2F040D465543AE462D0C3D439C
:100CC000029503947546049C2D04641B049406D27B
:100CD000029C039D641C002675410395029401AC9F
:100CE00070CC009F7D1B01E03EE162E1B44109044C
:100CF0000095079101940599A4086143090C0C46DD
:100D00004443650BE7040C4666467443A646640BF1
:100D10003C43039502947446049DE4042C1B049404
:100D200006D2029C039D641C002675410395029423
:100D300001AC70CC009F7D1BB44101940C465C4318
:100D40000095650FE7000C465443A646640F3C43EC
:100D5000039502947446049DE4002C1B049406D26F
:100D6000029C039D641C002675410395029401AC0E
:100D700070CC009F7D1BB441AE09AF06049DC90035
:100D8000AD092F43049DA406AD060495079D344389
:100D900069180791059DE10B4D432D0C29466646C8
:100DA000754302950D4645432E46029D7D1BB44179
:100DB00000950D465D4301942C0C2F040D465543C0
:100DC000AE462D0C3D43029503947546049C2D04BC
:100DD000641B049406D2029C039D641C002675418A
:100DE0000395029401AC70CC009F7D1BB44101942B
:100DF0008C050694079C890A611800950791019C4F
:100E00000599A4086143090C0D464543680BEF049E
:100E10000D46644665436C0B3C43049FED047D1B0B
:100E2000AC4602D20025641C6841009E019D371B20
:100E300085410846584301950C46460FC50054436A
:100E4000600F28436546E4002C1B02D20025401C9D
:100E50006E41019D3F1AB5412846BD0980062843D1
:100E60008446A009BF064E020699A40676180743D9
:100E7000079D002068410A99079019430020099BAB
:100E800000906046FF1913434041E20F64003A436B
:100E9000A4460446D71A8C41A04203D901200090F1
:100EA00020463A46C70F941840416246D20F22436B
:100EB000644664000494009CBE466400D71AA446AD
:100EC000044602978C417746002F01D1A04204D9F5
:100ED0006046401C8446029A2046C40FA6469418D9
:100EE0004041049A0546D20F224364466400D31A57
:100EF0008D417146002901D1A84202D928461A46DF
:100F0000641C10430122002800D016436102002017
:100F1000079B891904465C410223002C02DB491817
:100F200013466441089DCE0A2D145D194B056705D3
:100F3000E10A2C050D1908993E43C9076940002BA9
:100F400008D0934006D30022761C5141002B01D1DA
:100F5000760876001C4A002D43DB154241D0AA4397
:100F60003FD030460BB0F0BD06180D464D41174C32
:100F70007642AC411AD395181C465C41134A6D4227
:100F8000A24113D3012252054C00D4420AD15C0085
:100F9000D4420BD04B4002D592021143E2E7490004
:100FA0004908DFE75940C90FC90718E00020084980
:100FB000D8E7054801420DD10342F7D0F2E700001F
:100FC0000000FF07719E00000000F07F0000E0FFBE
:100FD0000000F87F114859400143C01241400020F1
:100FE000C0E70123089A9B069A4205DC03225207B8
:100FF0008918C90FC907B5E7052252078918074A9A
:101000001143D2125140ADE770B515461C46024659
:101010000B4628462146FFF7DFFD70BDFFFFFF7F2F
:10102000F0B5430DCA021A430446C3020815202531
:10103000274E002803D0AF063A43002813DB361AA8
:10104000002E2FDD502E00D350261146F14034469D
:10105000203C02D41046E04002E0AC1B1046A04009
:10106000F3401843F0BD4005400D01D15200520835
:10107000301A17D4502800D350201646C6400746D1
:10108000203F01D4FA4001E02D1AAA40C3401A4380
:10109000504200230025B3412A462D1A9A4101DB14
:1010A0001946F0BD4A00002C01D0012000E00020CC
:1010B000101801225205D04202D900200146F0BD8D
:1010C000C917C8430122C943D2075140F0BD0000EF
:1010D0003E0400000346CA02400D10B510430A1535
:1010E00004D00124E4072043002A05DB0A4CA21A9D
:1010F00004D4D040FF2A00DD002010BD4A00002BA0
:1011000001D0012000E00020101801225205D04239
:10111000F2D8C817C04310BD1E0400001F22030CE4
:1011200002D10F22000402D0030E03D004E00020FD
:10113000014670470002083A030F01D10001121F57
:10114000830F01D18000921E002801DB4000521E57
:10115000120551184205C012411810467047C10FC0
:10116000C90700D04042012292071143D6E701216E
:101170008907D3E710B50B1E01D0202301E0011E23
:101180002BD00C0C01D10904103B0C0E01D109022B
:10119000083B0C0F01D109011B1F8C0F01D18900E5
:1011A0009B1E002901DB49005B1E0446DC402143F5
:1011B0001C05A4182022D21A90404B05C20AC90A65
:1011C0001A430919830501D1430818401623984092
:1011D00002D30020521C4141104610BDCA0FD20755
:1011E00003D00B46002140429941024B1A43C1E70C
:1011F000004ABFE70000D041F0B58B4C0F092546EF
:1012000089B0BD437BD01D092646AE43FAD00E46B9
:101210005E402740F60F3E43254071D02401214215
:10122000FBD0FF24AD19A4042D1B039501252D052A
:10123000DB02DB0AC9022B43C90A29431E0109014B
:10124000040F130F050121431701880B82039143FB
:101250002D098C46A90B1E438A039543B30B9A03B1
:1012600096433F09BA0B9403A74302962E467E434A
:101270000497B6464E19D7190C4601965443059764
:101280007E43371B7646BF1B3601B646BE0B36196A
:1012900000967646BC043719009C01D3641C009468
:1012A0006400002F01D001263443029E049F754341
:1012B00066467E430496760034196E003419009415
:1012C000029C019E1C196643751BAE46069465463A
:1012D0004519059C05956C43594375460891691A53
:1012E0000191049E01465143A41B0491611A009C84
:1012F0000791E10605D061090122114302E072E085
:101300006EE06109089D00272C0A2D066918049DCE
:101310007C412A0A2D066918019D6241AC0DAD027F
:101320006D185441079A910D920255196141029A24
:10133000644658435443069B059A5A43121A131B9A
:101340009A0E9B015B187A41010B0005C3185141AD
:10135000220A200644195A419A4200D2491C01200F
:101360004002814203D315230226F64302E01423F0
:101370000326F6432020C51AA9401746AF40DA409D
:101380000A4320460399D8400914731819055118C7
:10139000039A3843D2075140AC4009D0012294400F
:1013A00006D30022401C5141002C01D140084000CE
:1013B0001E4A934212D3012203989206904207DB01
:1013C0000520400709181A480143C012414004E0B3
:1013D000032040070818C10FC907002009B0F0BD5D
:1013E0000020F107FAE705180C464C4111486D4200
:1013F000A04115D394181A465A410E4864429041B0
:101400000ED301204A004005824209D35A0082428D
:1014100006D35940C90F084AC90700201143DDE728
:1014200000200649DAE700000000FF07FE07000081
:10143000FFFFFF7F0000E0FF0000F07F0000F87F6B
:101440000121C9050123411842001B06D3185B0E78
:101450000AD0C1100722D206891840075242D14251
:1014600001D5520089187047090208D50146002AA3
:1014700003D0C10FC90700207047104670474202D1
:1014800002D0002002497047072109050143F4E713
:101490000000F87FF0B5FF252D04C609C209FF271B
:1014A00004462E400137CB093E4348402A402B409A
:1014B0000746002A6BD0002B69D0AA4267D0AB4206
:1014C00065D0002800DA32460125ED0529432C437A
:1014D00009022002090AD21A4B0C7F24E31A434C5A
:1014E000000A7C44E35C7D242404121914145B007C
:1014F000A218884201D3521C00E0400049420C4629
:101500005C4324115C43DB016415E318040A5C436B
:10151000C502200D0C4644436419250A5D4323038C
:10152000EC0C0D46654300030019EB184C42A34236
:1015300001D35B18401CD4052018002B07D05B009A
:10154000C91804D3401C002901D1400840003F21A4
:1015500089048A4209D3002A08DC1106090F04D045
:10156000032149074018C00FC007F0BD0122410008
:10157000120689187F2252069142F6D205214907A8
:10158000C84201D59010F0BDFF20C005F0BD002F6E
:1015900000DA32461648AA4207D2AB4205D21902F7
:1015A000090E17D0F80FC007F0BDFF2563002D0608
:1015B000AB42F9D84900A942F6D8AB4201D1A942C1
:1015C000F2D0A94201D1002101E061004908D00513
:1015D0000843F0BD1102090EFBD0FF200243D005E5
:1015E000F0BD0A460146104654E700004F96000041
:1015F0000000C07F10B501469E240002CA15A30753
:10160000002A02D01843002A04DBA21A002A0CDDAB
:10161000D04010BD1206120E01D140004008A21A9F
:1016200003D4D04040420028F3DDFF2248001206D8
:10163000904201D9002010BDC817C043584010BDCA
:101640000102C21504D00123DB071943002A0ADB7B
:101650009E239A1A02D40846D0407047FF224100C8
:101660001206914201D900207047C017C04370474D
:101670001F22030C02D10F2200041CD0030E01D143
:101680000002083A030F01D10001121F830F01D19C
:101690008000921E002801DB4000521ED205511826
:1016A000021251181922904004D3491C002801D17C
:1016B0004908490008467047C10FC90700D0404299
:1016C000012292071143D3E701218907D0E710B522
:1016D0000346080001D0202001E0190002D00C0CC4
:1016E00002D003E0084610BD090410380C0E01D1E9
:1016F000090208380C0F01D10901001F8C0F01D11C
:101700008900801E002901DB4900401E1C46C440A0
:101710002143C405A2182024241A080A801819227B
:101720009140E0D3A3400B43401C002BDBD1400889
:10173000400010BDCA0FD20703D00B460021404223
:1017400099419D23DB051A43C1E79D22D205BEE7DF
:1017500010B5FF22C30D134009D05A4007D0914263
:1017600005DA5C42A14202DDC905081810BDC40FAC
:10177000E407002B06D0002A06D0002902DBFF2058
:10178000C0050443204610BD4102FCD0004810BDF6
:101790000000C07F0B4670B50246890780080843E9
:1017A00019469D08141AA941250908070543080987
:1017B0002C194841250A01060D43010A2C19414103
:1017C000200C0D0428430D0C00194D410021401937
:1017D0004D41C00869070843E908840F8D0025437F
:1017E000840024184D4124196D41121BAB4107E0C0
:1017F0000925ED432C11521963410024401C61411D
:101800001C460A250026551BB441F1D270BDFEB519
:10181000054610460C46184373D0AE468C46002051
:10182000AD1A01469C4167D36646002701243D4618
:10183000B61A9D4102D313463A46212465467646A0
:101840002F04360C3E432D0CB61A9D4104D3150CC3
:101850001B042B4312041034654676462F06360AC5
:101860003E432D0AB61A9D4104D3150E1B022B438D
:1018700012020834654676462F0736093E432D0985
:10188000B61A9D4104D3150F1B012B431201241DD1
:1018900065467646AF07B6083E43AD08B61A9D4189
:1018A00004D3950F9B002B439200A41C65467646FB
:1018B000EF0776083E436D08B61A9D411AD3921879
:1018C0005B41641C16E00018764665464941B71A2C
:1018D0009D410191009009D36046B11A98418E460E
:1018E0008446009801990025401C6941DD07520893
:1018F0002A435B08641EE6D57246634603B0F0BD1A
:10190000FFE700200146C046C0462A462346F5E7C9
:1019100010B500F039FC006810BD10B5044600F0A9
:1019200033FC046010BDFFB504460D4681B0243081
:1019300000902168880604D51022E0699143216057
:1019400000E00120A84201DD471B00E000270498C9
:10195000A1697A191018081AA0612078C00602D46B
:101960002046C046C046002608E003986268A16889
:10197000805D9047206A401C761C20620498864255
:10198000F3DB2078C0060AD52046C046C04606E0F4
:101990006268A16830209047206A401C2062384667
:1019A0007F1E0028F4DC07E000986268A168405DB3
:1019B0009047206A401C206228466D1E0028F3DCF8
:1019C0002046C046C0462078000602D5022005B059
:1019D000F0BD0120FBE700007047FFB50C461E4636
:1019E0008FB003CA089009914F007D0D00D16D1E84
:1019F000002108460020C0460321099A89050840B5
:101A0000002A03DA8200801840080840800D01286F
:101A10000A9002DD0020C0430A90089807430DD0C9
:101A2000F048F149281848430714189800281DD099
:101A30007542291E1DDD0A9842421BE018980128B4
:101A400002D00020302104E00020F24305E02154C0
:101A5000401CB042FBDB30460022189B0021215481
:101A60000F998B600A60486013B0F0BDBD1B6D1C00
:101A7000DFE70A9A002900DA69420BA800F0E4FBCC
:101A80000BAB07CB03AB07C30899099800F048FCE0
:101A90006B4607C30146D5480918002D00910BDDA0
:101AA000D24903980A9A49424018002303A9039097
:101AB000684600F0A5FE08E003990A9A002308187A
:101AC00003A90390684600F045FE6B4607C3000477
:101AD000000C03D00020C043410800E01046189AD3
:101AE000002A03D00022009215461EE0751E05D480
:101AF000FFF750FE303262556D1EF9D501220843C2
:101B0000079602D000227F1C04E02078302801D103
:101B100000227F1E002A069787D01EE0112D07DACB
:101B2000FFF738FE303262556D1C02460A43F5D18C
:101B3000084303D00098002819D00EE00021681E49
:101B400005E0235C625C63542254401E491C8142C0
:101B5000F7DBA81B401E07950690079A18990020EE
:101B6000A0540F98079B069A81600CC07CE7112651
:101B70000020189059E7D21DF0B50D460446D10853
:101B800093B0C90003C90C900D9101F087FE024685
:101B90000D98C00F01D02D2007E02068810701D5E6
:101BA0002B2002E04007C00F4001032A0F9001D014
:101BB000072A05DB03462946204600F001FB0EE11B
:101BC0002078800601D5E76900E006272846652DC4
:101BD00004D0662814D0672D69D12DE00020112F84
:101BE000009001DB112300E07B1C0CAA03A910A8C4
:101BF000FFF7F3FE1199002610987D1C0E9142E02C
:101C000001203B460CAAC0070B900120009003A9BD
:101C100010A8FFF7E2FE119D1298109900260028E7
:101C20000E9501D1781C0D18781B02D446427D1CFC
:101C3000761EE81B00903AE0012F00DA0127002011
:101C4000112F009001DD112300E03B460CAA03A9EF
:101C500010A8FFF7C2FE11993D46109800260E917C
:101C6000217809070BD40E99A94200DA0D4603A981
:101C7000012D04DD4A19203AD27F302A06D0B8421D
:101C800001DA011D04DA012100910FE06D1EEFE77A
:101C9000002802DC86192D1A03E0411CA94200DD50
:101CA0000D46801B401C00900120C0070B9020783F
:101CB000000705D40098A84202DB0020C043009032
:101CC00069460020C8720B98012102AF0337C9078B
:101CD000884225D0022010902B2011900B980028CC
:101CE0000BDA40420B902D20119006E00B9800F08B
:101CF00093F830317F1E0B9039701099481E0029DF
:101D00001090F3DC0B980028F0D111987F1E3870EA
:101D10002088000501D5452000E065207F1E387031
:101D200001A8C01BC01D0B900F98002800D00120F7
:101D300041190098C01709180B980818A169081ACA
:101D4000401EA0612078C00602D42046C046C0468E
:101D50000F98002805D06268A1689047206A401C4F
:101D600020622078C00625D52046C046C04621E026
:101D7000002E07DB0E98B04204DD03A86268805D88
:101D8000A16802E06268A16830209047206A761C52
:101D9000401C20620098401E002800900AD100F0EC
:101DA000EFF9C06862680168405CA1689047206AEA
:101DB000401C206228466D1E0028D9DC07E06268BE
:101DC0003878A1687F1C9047206A401C20620B99DC
:101DD000481E00290B90F2DC2046C046C046032076
:101DE00042E6000001FCFFFF104D0000E1DFFFFFB5
:101DF000084B70B50D467B4400F0CFF904462846E9
:101E000006F090FF002802D00020C04370BD20469D
:101E100070BD0000B770000001468008081A020972
:101E20001018020A1018020C1018C00882001218AC
:101E30005200891A01E0401C0A390A29FBD2704776
:101E4000F8B5224C4E00069DA6420AD8A64201D102
:101E5000002806D15E00A64203D8A6420AD1002A75
:101E600008D00D24240425422CD02946002000F05F
:101E700017FDF8BD0C461C430CD4994202D0EFF379
:101E80000080F8BD904202D0EFF30080F8BDEFF380
:101E90000080F8BD09242407E5008B4206D0EFF34B
:101EA0000080A043591A06D2284304E0101A05D333
:101EB000EFF30080A04380F30088F8BDEFF30080CB
:101EC000A043F1E7009500F003FDF8BD0000E0FF3E
:101ED000F8B5064601270E43FF0509220546F41B07
:101EE00012070D43D300F619002D1CDB002E09DB71
:101EF000002C24DB401A02D3EFF300800AE0EFF35A
:101F000000800BE0F84234D4F94232D4401A03D3B3
:101F1000EFF30080904303E0EFF300809043184319
:101F200080F30088F8BD002E11DA002C07DA081AB9
:101F300002D3EFF30080EDE7EFF30080EEE7001A45
:101F400002D3EFF30080E5E7EFF30080E6E701243A
:101F5000450024066D42A5420BD94D006D42A542B5
:101F600007D9081A02D3EFF30080D3E7EFF300801C
:101F7000D4E7024A00F004F8F8BD0000090010049C
:101F800010B5FF231B0644009C421DD84C009C4208
:101F90001AD80346124A0B4307D4401A02D3EFF370
:101FA000008010BDEFF3008010BD081A06D2EFF3D9
:101FB000008001219043C907084302E0EFF300804D
:101FC000904380F3008810BD0D231B041A4204D0F7
:101FD0001146002000F064FC10BD00F083FC10BD31
:101FE0000000009070B5024601020123C0152024B4
:101FF0009E26DD07002802D02943002813DB361A6D
:10200000002E29DD0846F040A21B01D4914000E0DB
:102010004908002906D0994000D3401C002901D16D
:102020004008400070BD0006000E01D1490049087B
:10203000361A11D40846F040404200280CDCA21B9E
:1020400001D4914000E049080029EBD0CA0F4900B3
:1020500000D11843801A70BDFF2150000906884244
:1020600001D9002070BDD017C043684070BD00008A
:10207000C10D10B50906090E2ED0FF2931D07E29D9
:102080002DD319D0962916D2024675398A4005D02B
:10209000002402468A4003D3012302E00124F8E72A
:1020A00000230222CA41511E8843002B03D080180E
:1020B000002C00D0904310BD0121420201D1012229
:1020C00000E00022C00FC0070029F4D0002AF2D19E
:1020D0007F21C905084310BDC00FC00710BD0021F6
:1020E000EFE74102FAD0014810BD00000000C07FB8
:1020F00030B5C30D1906214A090E31D0FF292FD062
:1021000000283ADB01025002014301207D33C34025
:1021100000D24908012080071724091A240649081B
:1021200082102343FF252D064C00211A04D4891A5E
:1021300002D45400201800E0214652085B19F3D560
:102140001A220446944007D382068A4203D1802192
:102150008030884300E08030C009D905081830BDC0
:10216000FF2904D04100FAD0C00FC00730BD4102A2
:1021700001D0104630BD0028FCDAFAE70000C07F2D
:1021800000487047F808002000487047D808002031
:1021900001694A1C02610878704700B58FB002914E
:1021A000002105910549019379440391114604905A
:1021B0006846FEF751F90FB000BD0000E5FFFFFFD4
:1021C000F8B51F46044601230068DB0203260146DA
:1021D0001840072A05DB002801D017A506E017A53F
:1021E00004E0002801D016A500E016A510208143C8
:1021F0002160A069C01E002FA06101D0401EA06117
:102200002046C046C046002F09D038466268A16803
:102210009047206A401C2062C01C206206E0206AB1
:10222000FAE762682878A1686D1C9047761EF8D29C
:102230002046C046C046F8BD4E414E006E616E005D
:10224000494E4600696E6600F7B516468AB03348B7
:1022500078446C4603467C33C06F5A689B680DC453
:102260002E487844763003AC0DC80DC43720C00129
:10227000081837211B30FEF71EFA05460C46803D34
:102280001B3C02D56442012000E000200027099099
:1022900010E0E0070CD00C20204978437944324606
:1022A0004C3941186846012300F054FA6B4607C3C5
:1022B00064107F1C002CECD1184F7F442E3F16E099
:1022C000E80712D02001C0190EC8069108930792A2
:1022D0000068F04201D1981908903246012306A9FE
:1022E00003A800F037FA03AB07C36D10641C002D80
:1022F000E6D10998002806D032466946012303A892
:1023000000F07EFA05E001233246694603A800F09A
:1023100021FA0A9B07C30DB0F0BD0000348B00000A
:10232000034640000A4610B5400D0BD00121C907F5
:102330000F24A40200191C0364082143540D2143F7
:10234000D20207E000210120F2E7D40F4900214327
:102350005200401E0029F8DADB0FDB07184310BDDE
:10236000FFB50D46144685B04868516801F070FA13
:1023700000910190A868A16801F06AFA02910390A7
:10238000A868616801F064FA029A12188242029207
:1023900001D2012000E00020019A0B18D218002879
:1023A000019202D08A4202D903E08A4201D201207E
:1023B00000E000200099081800906868A16801F00A
:1023C00047FA029A12188242029201D2012000E0DA
:1023D0000020019A0B18D2180028019202D08A42DC
:1023E00002D903E08A4201D2012000E000200099D6
:1023F00008180090286821684000490040084908F2
:102400004018FA49471814E001994000C90F0843E1
:102410000090019802994000C90F0843019002986A
:1024200003994000C90F08430290039840007F1EA3
:10243000039000980028E7DA0898002801D0EC4EB5
:1024400000E00026B74201DA012000E00020002869
:1024500004902AD0F71BF806C00E15D0029B20214D
:10246000091A039A8B401A430392029A019BC240B5
:102470008B401A430292019A009BC2408B40009904
:102480001A430192C14000917B110DD06F46032089
:10249000C11A03D500218200B95003E08A008100EF
:1024A000BA587A50401EF3D537460398029900284F
:1024B00000D00120014308980291002808460CD062
:1024C000002800D001200199019A49050843012103
:1024D000D20AC902D202019200E001210E9B012220
:1024E000D207012B02D0002B03D013E0002807D124
:1024F00020E0904204D890420CD1019B0B4209D0BD
:10250000019B5918019105D10099491C009101D1F5
:102510007F1C009200280DD0102108460020C046E4
:102520000498002806D00F98002803D008210846F8
:102530000020C04628682168019B009A4840C10FCE
:102540000598C90739430EC009B0F0BDFFB587B083
:10255000099A08980899536892684068896896466D
:102560000022039317469446089A12685300099A6A
:102570005B081268520052089A1A9E4BD4180A9AA5
:10258000002A01D0352200E04022069200220123D9
:1025900015460492DB07059324E0002D05D175460E
:1025A0000346039E4D1BB34109D375466646039B04
:1025B000491B049D9841059B7519AC465F416346D4
:1025C0003B4308D0059B049EDD0776082E435B083D
:1025D0000496059301E0521E641EC50FED074918CD
:1025E0004041521C069B9A42D7DB002D04D1754610
:1025F000039A6B1A824101D203200CE0039A0B4626
:102600006B404240134303D0014303D0012002E05A
:10261000022000E000206146019100210097029114
:102620000A99002905D0614640020143704B01918F
:1026300002E08007002302909C4201DA012000E0C2
:10264000002007003AD01A1BD006C00E15D0029DFC
:102650002021019C091AC5408C402543029C8C40D6
:1026600000D001242543019C0295009DC4408D406B
:1026700000992C430194C140009154111DD06D4626
:102680000221002202290CD10320001B07E00028B0
:1026900004DB8600AE59002E00D00122401C032826
:1026A000F5DB081B02D588002A5004E0800028587A
:1026B00010438A00A850491EE3D51C460A980028FA
:1026C00002980CD0002800D001200199019A4905F8
:1026D00008430121D20AC902D202019200E001217D
:1026E000109B0122D207012B02D0002B03D013E054
:1026F000002807D11FE0904204D890420CD1019BE2
:102700000B4209D0019B5918019105D10099491C30
:10271000009101D1641C009200280CD010210846C1
:102720000020C046002F06D01198002803D00821B1
:1027300008460020C04608980999019A009B006845
:1027400009684840C10F0798C907214382600AC041
:102750000BB0F0BD00B585B0019300920A4601466A
:10276000002302A8FFF7FCFD02A807C805B000BDC2
:10277000FFB50A461F4685B00799019301230091D2
:10278000014602A8FFF7ECFD02990398049ECA0FC8
:102790004900D20700920F22490892028C1A0021A8
:1027A000002800DB0C46450013486D08844214D312
:1027B000079A002A04DA441E0026104DF64302E070
:1027C00004460D460E46102108460020C046002F44
:1027D00003D0042108460020C0462005E90A08432A
:1027E000009908436905F20A1143ADE602C0FFFFF4
:1027F000013C0000FF3F0000FF070000FFFFFF7FDC
:1028000000B585B0019300920A460146002302A854
:10281000FFF79CFE02A807C8A8E7FFB50A461F46B7
:1028200085B00799019301230091014602A8FFF7A3
:102830008DFE02990398049ECA0F4900D2070092A8
:102840000F22490892028C1A0021002800DB0C4656
:10285000450011486D08844214D3079A002A04DA0F
:10286000441E00260D4DF64302E004460D460E467A
:10287000102108460020C046002F03D0042108463E
:102880000020C0462005E90A08430099084369056D
:10289000F20A114358E60000FF070000FFFFFF7F28
:1028A000C80212D54803400F002804D0C803C04313
:1028B000012188407047EFF30080000100090321E7
:1028C0000907084380F30088704700207047000024
:1028D00010B500200249029A00F07CF810BD0000FB
:1028E0000000F87F10B5024800F074F810BD000039
:1028F0000000C07F00487047D80800207546FFF7E9
:10290000F9FFAE46050069465346C008C00085463B
:1029100018B020B5FDF796FC60BC00274908B64604
:102920000026C0C5C0C5C0C5C0C5C0C5C0C5C0C5DE
:10293000C0C5403D49008D46704710B50446C046AD
:10294000C0462046FDF71FFC10BD0000024670B5D2
:102950000A4392072AD11E4DEE0104C808C9541B30
:102960009443344017D0D0B2D9B2401A2106014363
:1029700010D190B299B2401A210401430AD1100239
:102980001902000A090A401A2102014302D1100E5D
:10299000190E401A70BD9A42DFD010BA19BA884297
:1029A00001D9012070BD0020C04370BD02780B78B2
:1029B000401C491C002A09D09A4207D102780B78A2
:1029C000401C491C002A01D09A42EFD0D01A70BD99
:1029D0000101010110B50C461107090F092904D0A6
:1029E0000A290AD008290CD104E011460820FFF773
:1029F00057FF06E0510606D501E0510601D501203A
:102A0000C007214610BDD10607D501010909CC0830
:102A10004907000E0006044309E0410F2002490760
:102A2000000A0143200E00061D22D1410143084641
:102A3000E7E770B58C180578401C6B075B0F01D178
:102A40000378401C2A1106D10278401C03E0067866
:102A5000401C0E70491C5B1EF9D12B0705D40023C6
:102A6000521E0DD40B70491CFAE70378401CCB1A98
:102A7000921C03E01D780D70491C5B1C521EF9D599
:102A8000A142D8D3002070BD00B5C0229178F822B1
:102A90001140144A1278114313480A46E03A1300D1
:102AA00000F0EEFE0E0A0E12161A1E1E1E080C1064
:102AB00014181C1E0D4813E00D4811E00D480FE0DE
:102AC0000D480DE00D480BE00D4809E00D4807E00A
:102AD0000D4805E00D4803E00D4801E00D4800BF3A
:102AE00000BF00BD201C024040420F000090D003F8
:102AF000006CDC020048E80100366E010024F4009E
:102B0000001BB70000127A00808D5B0000093D00B9
:102B1000C0C62D0080841E000E4840780821084061
:102B2000084000280AD10B4840781021084008408E
:102B300000280DD001200849087009E005484078B8
:102B4000102108400840002802D0002002490870E7
:102B500070470000000004403801002000B59F4885
:102B60004078102108400840002872D19C48007825
:102B7000012806D0022813D003287DD004280ED1C6
:102B8000E5E0002096498870087548750871C968A5
:102B9000934A127D88549249487002200870E2E0FE
:102BA0008F488078401C8E498870084680780828B5
:102BB0001CDA0846407801285DD108460069007893
:102BC00089780722521A012191400840002806D036
:102BD0008248407808210843804948704BE07F488C
:102BE0004078F72108407D49487044E07C4880786F
:102BF000082840D17A48407800282CD17848C0680D
:102C00000078FE210840EC2808D1012074490871A1
:102C10000846C0680078C007C00F48707048007947
:102C2000002825D06D484030407C082108436B497E
:102C300040314874694820304078F721084067499E
:102C40002031487065484078F72108406349487052
:102C50000EE089E010E06148203040780821084308
:102C60005E49203148705E48407D401C5C49487593
:102C700003205B49087076E00020594988700846B7
:102C80004078002812D15548203040780821084368
:102C90005249203148705248007D401C5049087507
:102CA0000020C9684E4A127D88544CE04B484030A1
:102CB000407C082108434949403148744748203046
:102CC0004078F72108404549203148704448C068A1
:102CD0004078030000F0D4FD05040A10161C220001
:102CE000404800783E490969087017E03D4840783F
:102CF0003B490969087011E03A4880783849096908
:102D000008700BE03748C07835490969087005E05C
:102D10003448007932490969087000BF00BF304863
:102D20000069007880210840002806D02B484078B0
:102D3000082108432949487005E028484078F721D0
:102D40000840264948700220254908700BE0002001
:102D500023498870214820304078082108431F49C2
:102D60002031487000BF38E01D480078022802D0AA
:102D7000032831D121E01A48407800281CD1184896
:102D80008078082818DA154840780821084008405B
:102D9000002811D01248C0681149097D405C1049D3
:102DA00089780722521A012191400843C1B20C4888
:102DB000C0680B4A127D81540EE009484078012812
:102DC00009D106484078082108400840002802D070
:102DD00004200349087000BF00BF00BD000004408C
:102DE00038010020580100203348007804210843AE
:102DF0003149087001203149C8800846808808217F
:102E000008432E49888007202C492039C8812C4846
:102E1000C8821720C883672040022A49C8802748F3
:102E20000089294908432549088100BF0020274916
:102E300008722748407801210843254948702448F2
:102E40002030407840084000214920314870204817
:102E50004030407C012108431D49403148741C48E2
:102E6000603040784008400019496031487000BF28
:102E700000BF0020154948721548407802210843D8
:102E80001349487012482030407802218843104985
:102E9000203148700E484030407C022108430C49E4
:102EA000403148740A48603040780221884308491C
:102EB0006031487000BF7047200402402011044078
:102EC000248000004013044008080000000804406B
:102ED0000000044070B504460D4616460020144913
:102EE000087001200443022008701248C08B80043F
:102EF000800C1049C8830846C08B0121C9030843D0
:102F00000C49C8830C48068000200C4908800C48F6
:102F1000056000F055F800200A4908760E2000F000
:102F2000E5FC0021084801760848847170BD000066
:102F3000B000002000110440C2000020C0000020AA
:102F4000BC0000202060004020610040401304408D
:102F500070B504460D461646002012490870FE2042
:102F60000440012008701048C08B8004800C0E497A
:102F7000C8830846C08B0121C90308430A49C88396
:102F80000A4806800A48056000F01AF8002009493E
:102F900008760E2000F0AAFC0021074801760748B9
:102FA000847170BDB000002000110440B800002002
:102FB000B400002020600040206100404013044025
:102FC00008B51348008913490840114908810020B9
:102FD000009005E000BF68460078401CC1B2009137
:102FE000684600781428F5D9094800890A4908403C
:102FF0000749088108464089082108430449488157
:1030000008464088082108430149488008BD00005F
:1030100020110440F7FF0000FFF7000001210648DF
:1030200001760648808808210843044988800020EA
:1030300003490876704700002061004020110440D9
:103040002060004008B516488088082108431449CC
:10305000888008464089134908401149488108463C
:103060000089104908400E49088108460089C914A2
:1030700008430B4908810020009005E000BF684626
:103080000078401CC1B20091684600781428F5D938
:1030900003480089082108430149088108BD000050
:1030A00020110440F7FF0000F8B504460D4616460F
:1030B0001F461048057000200F4908706106080E71
:1030C00001220C49FFF744FF00BF0B48007800289D
:1030D000FBD00020094908706106080E3A463146C7
:1030E000FFF7F8FE00BF054800780028FBD000205D
:1030F000F8BD0000D00100202E0100202F0100208B
:10310000F8B505460E4617461C460C480670224682
:103110003946401CFDF764FA002009490870611C1B
:103120008AB26906080E0549FFF712FF00BF04487E
:1031300000780028FBD00020F8BD0000D00100205E
:103140002E01002008B5C207D20F002A32D000BFDE
:103150002922754B1A71754A527B40231A43734BCF
:103160005A73724A4032527B40239A436F4B40332A
:103170005A7300BF01236E4A137100226D4B1A71FE
:103180006D4A527E520852006B4B5A761A46127E96
:10319000520852001A761A46527ECB07DB0F1A43AA
:1031A000654B5A761A46127E02230B405B081A437F
:1031B000614B1A7602220240002A34D000BF062258
:1031C000594B5A71594A527808231A43574B5A702F
:1031D000564A4032527808239A43544B40335A702F
:1031E00000BF0123524A13720022524B1A72524AF4
:1031F000527E02239A43504B5A761A46127E02237D
:103200009A434D4B1A761A46527ECB079B0F1A43B0
:10321000494B5A761A46127E02230B405B085B002C
:103220001A43454B1A7604220240002A34D000BFCC
:1032300007223D4B9A713D4A527810231A433B4B6B
:103240005A703A4A4032527810239A43374B4033EF
:103250005A7000BF0123364A13730022354B1A738C
:10326000354A527E04239A43334B5A761A46127ECD
:1032700004239A43304B1A761A46527ECB075B0FD3
:103280001A432D4B5A761A46127E02230B405B08D6
:103290009B001A43284B1A7608220240002A34D099
:1032A00000BF1322204BDA71204AD27801231A433F
:1032B0001E4BDA701D4A4032D278520852001B4B26
:1032C0004033DA7000BF0123194A13740022194BEE
:1032D0001A74194A527E08239A43174B5A761A4693
:1032E000127E08239A43144B1A761A46527ECB0755
:1032F0001B0F1A43104B5A761A46127E02230B40BC
:103300005B08DB001A430C4B1A760022009205E0A2
:1033100000BF6A461278521CD3B200936A461278F4
:103320000C2AF5D908BD00006008044020000440C4
:103330000061004000600040205B0440C107C90FED
:10334000002905D00021124A1171002211490A7189
:1033500002210140002905D000210D4A11720022EE
:103360000C490A7204210140002905D00021084AB5
:103370001173002207490A7308210140002905D072
:103380000021034A1174002202490A7470470000A8
:10339000006000400061004010B55648C08802211E
:1033A0000840022807D154480088002803D0022092
:1033B00005F024FF9AE04F48C088C007C00F0028DE
:1033C00007D04D480088002803D0052005F016FFDF
:1033D0008CE04A480078C007C00F002818D0464843
:1033E000008800280FD04648006800784549887159
:1033F00043480068401C424908603F480088401E1E
:103400003D49088072E0FFF71DFE05F003FF6DE007
:103410003A48007804210840002832D1354820304D
:103420008088082108433349203188803148C08B87
:103430008004800C2F49C8830846C08B0121890372
:1034400008432C49C8832B48203040880821084372
:103450002849203148802948007804210843274919
:10346000087029480088012807D122482030408967
:10347000264908401F4920314881FF202149887191
:1034800034E0234800882049098888422EDA1D4804
:1034900080792049096808701E480068401C1D4951
:1034A00008601B480088401C19490880164800889D
:1034B000401E098888420BD10E48203040891349AC
:1034C00008400C4920314881FF200E4988710DE0E9
:1034D0000F4800880C490988884204D1FFF7B2FDE3
:1034E00005F08EFE02E0FF200649887100200A499F
:1034F000087610BD00110440B8000020B000002084
:10350000B400002040130440C2000020F7FF000078
:10351000C0000020BC0000202060004010B5032146
:103520000220FFF70FFE03210420FFF70BFE02200D
:10353000FFF704FF0420FFF701FF10BD05480068F6
:10354000401E0449086004480068401C02490860A5
:1035500070470000080000200000002000B5FFF7C1
:1035600093FA0149086000BD5401002000B5802095
:103570001B4948711A201A49203908732B204873B7
:103580003C2088734D20C873002016494860FFF71F
:103590007BFA154908600020C043144908601449AB
:1035A000086014481449086011490322120289185E
:1035B00048600F49891888600D498918C8600C490E
:1035C000891808610A498918486109498918886178
:1035D00007498918C861AC200849487000BD00003F
:1035E0002004024000B001405401002080E200E0CD
:1035F00000E100E0C0C0C0C000E400E000100240F4
:10360000F8B505460E466A463146284600F0C6F82B
:103610000446002C1FD10320104988800846C0882A
:1036200000090001C8800846C08869460978084337
:103630000A49C880684640784006000C084908825C
:10364000684640784006000C4882044840880321C0
:103650000843024948802046F8BD0000201104407C
:103660000013044070B505460E463C48007804211E
:1036700008433A49087003203949C8802220384954
:10368000203908823748088367204002364908827B
:103690003648007C0121084334490874072030492A
:1036A00020394881FF2023304882314848836720F1
:1036B00040022D4948822A480089012108432849AF
:1036C00008810846808A2B49084025498882084697
:1036D0004089012108432249488100BF052026492D
:1036E000487426488078022108432449887023487A
:1036F00020308078022188432049203188701F487B
:103700004030807C022188431C49403188741B482A
:10371000603080780221884318496031887000BF8A
:1037200000BF0D20144960310872144820308078A1
:103730000421084311492031887010486030807896
:10374000042188430D496031887000BF3146284606
:10375000FFF756FF0446204670BD000020040240DB
:1037600020110440978000000013044060040440CE
:1037700097400000FEFF00000008044000000440E5
:103780000449087400BF04490988602211400029D7
:10379000F9D170470013044000110440F7B584B01C
:1037A00016468020039000242BE06000174A115A2F
:1037B0000498FCF776FF019002251EE0691C019831
:1037C000FCF76FFF41080291114A029951430846E4
:1037D0000599FCF766FF0E49471A381E01DB0146C2
:1037E00000E04142142906DA34707570002003901D
:1037F000039807B0F0BD681CC5B2802DDEDB601CED
:10380000C4B2102CD1DB0398F3E7000090A60000AF
:1038100010270000AC20014948707047001002409A
:10382000F8B582B28BB204140D141046584300212F
:1038300026465E43371436048019794116466E4396
:10384000371436048019794126466E438919F8BD2C
:10385000F8B582B28BB2040C0D0C1046584300210F
:1038600026465E43370C36048019794116466E436E
:10387000370C36048019794126466E438919F8BD04
:1038800030B47446641E2578641CAB4200D21D46D9
:10389000635D5B00E31830BC184700004900CA02B2
:1038A0000243100000D004204A0D01D00122104331
:1038B000044A490D914201D102210843012800D157
:1038C00005207047FF0700004100080200D00420D7
:1038D0000A0E01D001221043090EFF2901D1022155
:1038E0000843012800D1052070470000002805DBAF
:1038F000C206D20E01219140014A116070470000BA
:1039000080E200E010B5002819DB1A4A03231B02ED
:10391000D21883089B00D2588307DC0EFF23A340F4
:103920009A438B071B0E8407E40EA3401A43114BE6
:10393000032424021B198408A4001A5118E00E4A1B
:1039400003071B0F083B9B089B00D2588307DC0E24
:10395000FF23A3409A438B071B0E8407E40EA3406A
:103960001A43054B0407240F083CA408A4001A516D
:1039700010BD000000E100E01CED00E010B57F206C
:103980000021C005FDF786FD10BD10B50121FDF732
:10399000DFFE10BD10B506F0CBFC10BD10B5002148
:1039A0000846FDF777FD10BD10B50720612100071F
:1039B000FDF7CEFE10BD5E2110B5C9430807FDF727
:1039C000C7FE10BDF0B50E4614465100FF22120688
:1039D00087B0914203D31116316007B0F0BD0120CA
:1039E0002502C0070543E00D7838C206D20E20201C
:1039F000871A6000000E7838401181004D487844E5
:103A00000B189C464358002A14D0604640689340E7
:103A10000146F84003436046806891408646F8407E
:103A20000143039160467146C0689140F8400143EC
:103A30000F4603E0604641680391876818462946AF
:103A4000FFF706FF0291049029460398FFF700FF55
:103A50000391069038462946FFF7FAFE0F4606986E
:103A6000029B3D18049A0399BD4201D2012700E050
:103A700000278818C019002F02D0884202D903E01D
:103A8000884201D2012100E0002159180A46203263
:103A90009709C20C89065203400337601143019015
:103AA0000846FDF709FE02900198FDF70DFE122170
:103AB000C943FDF74DFE01902846FDF705FE25217F
:103AC000C943FDF745FE00900199029806F030FCCD
:103AD000009906F02DFC0121C9024018050B2D03A9
:103AE0002846029906F024FD019906F021FD00996F
:103AF00006F012FD104906F08BFC00900F49284695
:103B000006F086FC009906F013FC00900C4928464C
:103B100006F07EFC009906F00BFC002C00DB5CE755
:103B200001210907C91B31600121C907484007B0BD
:103B3000F0BD000066730000DB0FC92F22AAFD292B
:103B40000000C92F30380A2801D201207047002018
:103B500070470000002803D00449054A116202E0C2
:103B60000121034A116200BFFEE70000AD0B000017
:103B700000800240F7B5D6B0174600201D90002601
:103B80001C9000210C460D461B901A90199018901D
:103B90001790169015901490139012901190109009
:103BA0000F900E900D900C900B900A905798002853
:103BB00073DD0E201D901DAB1EAA5799569804F078
:103BC00041FA1C9000BF7CE030011EA94018407BE8
:103BD0000300FFF755FE166D0C16202A6D4C3A5265
:103BE000466D6D6D6D34406D6D586D6D636D30015A
:103BF0001EA9401880681B9030014018807B1A90E5
:103C000057E030011EA94018806813903001401819
:103C1000807B12904DE030011EA940188068119001
:103C200030014018807B109043E030011EA94018FD
:103C300080680F9030014018807B0E9039E0300191
:103C40001EA940188068199033E030011EA9401861
:103C5000806817902DE030011EA9401880681690EA
:103C600027E030011EA940188068149021E030013F
:103C70001EA94018806818901BE030011EA940184A
:103C80008068159015E030011EA9401880680D90DD
:103C900030014018807B0C900BE030E030011EA911
:103CA000401880680B9030014018807B0A9000E03B
:103CB00005E000BF30011EA9081830C800BF701C05
:103CC000C6B218A8007D864200DA7DE7139B1C9AD5
:103CD00011990F980793069208910990189B179ACB
:103CE00015991498039302920491059016991998C6
:103CF00001910090204629461A9B1B9AB84759B05B
:103D0000F0BD0000FEB505460E4617461C460020D5
:103D10000190089800287DD049494A4800F073F97D
:103D2000019048480078802108400028F3D0089886
:103D3000C007C00F002813D0012021780901C9193C
:103D4000487340498868FDF7BFFC21780901C9190B
:103D5000886020780001381860C02078401C2070EE
:103D600004210898084000282AD00320217809015E
:103D7000C919487333490420085EFDF79DFC324998
:103D80000090FDF787FB21780901C9198860207828
:103D90000001381860C02078401C20700E20217867
:103DA0000901C91948732948006821780901C9190E
:103DB000886020780001381860C02078401C20708E
:103DC000022108980840002817D002202178090114
:103DD000C91948731B49C868FDF776FC1C49009057
:103DE000FDF758FB21780901C91988602078000186
:103DF000381860C02078401C2070082108980840BE
:103E000000281BD00F48007820210840002815D03A
:103E1000042000E012E021780901C919487309491A
:103E20000869FDF751FC21780901C91988602078DB
:103E30000001381860C02078401C2070FEBD0000D2
:103E400064010020BC0100200000C84234010020B1
:103E500000007A44F8B504460D460027207D00286E
:103E600025D0E17C1B480176617C18308170A17CF3
:103E70004170217C001D8170A1898180E189C18010
:103E80000121001D0171CF2601464039304600F066
:103E9000AAF907460F48203800F060F907460D4997
:103EA0002039684600F050F868460088A84709485D
:103EB000203800F0C6F8074606E00520A847054868
:103EC000203800F0BEF8074602482030007901286B
:103ED000F3D0F8BD8401002070B5A6B004460A25D1
:103EE000082101910026012110A8017312940E21CE
:103EF00012A8017314940721017516940F210177FC
:103F0000189409211AA801711A9406211CA801719C
:103F10001C9408211EA801711E94022120A8017181
:103F20002094032122A801712294042124A8017164
:103F3000249401AB02AA294612A804F0C5FB064648
:103F4000304626B070BD0000FEB506460C4616A1F0
:103F500003C9019100903920005D69460F5C3A2049
:103F6000005D085CC7193820005D085CC71910485F
:103F7000784305460E4837382D180E482D18FF3562
:103F8000F5357D21C9002846FCF78BFB05466D1CE5
:103F900035803E20005D002804D031884220005B3F
:103FA00008183080FEBD0000000102040810000067
:103FB000AB07000051090000FFB581B005461C4663
:103FC000204605F055FB0646002E19D1A0780028A2
:103FD00008D12146284605F0FFFF0646002E01D1F4
:103FE000802005436078A76C2946039B029AB84756
:103FF000542108555420005D002801D00126F643C5
:10400000304605B0F0BD70B506460C46204605F0BA
:104010002FFB0546002D12D12146304605F0E0FE6B
:104020000546002D0BD1307880210840002803D0B0
:1040300001214520015502E0002145200155284677
:1040400070BD38B50446204605F012FB0546002D2C
:104050000CD12346012269467420FFF7ADFF0546C7
:10406000684600788107890F44200155284638BDED
:1040700070B50446204605F0FBFA0546002D18D120
:10408000204600F0EEF90546002D12D1234601220C
:104090002146D020FFF790FF0546002D09D120785A
:1040A000612804D1204604F010FF054601E00225F6
:1040B000ED43284670BDFFB58DB016461D4628213C
:1040C00002A8FCF7ECFA284605F0D2FA0C900C98FE
:1040D000002840D1002E3BDD142E39D200241DE0F3
:1040E000A87800280DD10D99085D294605F074FFC8
:1040F0000C900D98005D4006400E610002AA5054DD
:1041000004E00D98005D610002AA50540E98015D14
:104110006000401C02AA1154601C84B2B442DFDB70
:104120000C98002817D17000401E83B26846017AAF
:104130006878019002AA0132EF6CB84754214855C3
:104140005420405D002806D00120C0430C9002E0BE
:104150000320C0430C900C9811B0F0BD7CB5044610
:10416000002674200090204605F082FA0546002DB6
:1041700037D100BF2346012201A97420FFF71CFF9D
:104180000546002D14D1684600798607B60F002E2B
:104190000ED06846007981088900019123460122EA
:1041A00001A96846FFF787FF05460A20216D884769
:1041B000002EDFD14420005D002812D06946087926
:1041C000800880004421095D8907890F0843019018
:1041D000002D06D12346012201A96846FFF76BFF97
:1041E000054628467CBDF0B587B006460C46002043
:1041F0000590002503900490019002904420005DFA
:104200000090204605F034FA0746002F7DD10820A3
:104210003040002803D0204605F0ACFE07460021C0
:1042200044200155002F03D12046FFF797FF074692
:104230001020304000282AD02346072200212046A3
:104240003B3000F039F9074675200690002F06D163
:104250002346012205A90698FFF7AEFE0746102067
:10426000304000280AD06946087D1C2188433B2144
:10427000095D89001C2211400843059003A9069896
:1042800048556846007D01A94855681CC5B22020E4
:104290003040002825D023460822002120463D300A
:1042A00000F00AF9074670200690002F06D1234639
:1042B000012205A90698FFF77FFE07466846007DA4
:1042C000082188433D21095D0822114001430591E1
:1042D00003A9069848556846007D01A94855681C01
:1042E000C5B2B007800F00283BD02346052200212D
:1042F0002046393000F0E0F8074674200690002F81
:1043000008D12346012205A900E0A7E00698FFF79F
:1043100053FE0746F007C00F00280AD06946087D03
:10432000E02188433921095D4901E0221140084319
:1043300005900220304000280AD06946087D1C21E3
:1043400088433A21095D89001C22114008430590E9
:1043500003A9069848556846007D01A94855681C80
:10436000C5B204203040002825D023460522002174
:104370002046383000F0A0F8074672200690002F43
:1043800006D12346012205A90698FFF715FE074628
:104390006846007DC008C0003821095D4907490F03
:1043A0000143059103A9069848556846007D01A977
:1043B0004855681CC5B2C0203040002842D0234672
:1043C0000122002120463E3000F076F80746002FFB
:1043D00007D123460A22002120463C3000F06CF829
:1043E000074671200690002F06D12346012205A919
:1043F0000698FFF7E1FD07464020304000280AD02C
:104400006946087D102188433E21095D090110227B
:1044100011400843059080203040002809D06946AB
:10442000087D000900013C21095D0907090F0843C7
:10443000059003A9069848556846007D01A948558E
:10444000681CC5B2002F06D123462A4601A903A83D
:10445000FFF731FE0746442100980855384607B05B
:10446000F0BD7CB50446E0210191B62100912046C3
:1044700005F0FEF805460025002D1BD1A078002888
:1044800003D1204604F000FE0546002D12D123463C
:104490000122694601A8FFF70EFE05460A20216D9C
:1044A0008847002D06D1A078002803D1204604F0CB
:1044B000EBFD054628467CBD70B504460020002C67
:1044C00014D025788D4206DA21704625ED5C012650
:1044D00035434626F5542578954209DD2270462558
:1044E000ED5C022635434626F55401E00020C0432A
:1044F00070BDF0B5166804460020069DF6188E4281
:1045000002D92820C043F0BDAB4202D92520C043C8
:10451000F0BD012108E0059D16686D18203D361993
:104520004F1EED7FF555491C9942F4D91168C91801
:104530001160F0BDFEB505461320800128180090DB
:10454000807E002868D0284600F0AAFF0124364F5C
:104550002646611E3046884038420DD03348001947
:104560002038C07F400041190920C0010818028D81
:104570002146284601F08EF8641CE4B2162CE8D3DC
:10458000284600F007FF2A48012428180190611EE0
:1045900001208840244908421BD0244800192038B3
:1045A000C17F0198085C002813D0224960000126D1
:1045B0004718403F3E21795E721E01209040014223
:1045C00003D03146284601F031F8761CF6B20B2EA6
:1045D000F0D3641CE4B2162CD9D30098002484765E
:1045E00013480E21401C2818FCF757F8009B12496D
:1045F0009C75C9780924490003260020E401491963
:1046000036028919C98C0246460076193619768A0F
:104610008E4202D1401C9875FEBD401C002AFBD181
:104620000428F1DBFEBD0000EF79120074A7000042
:10463000C50400008AA7000008A80000F8B51446C9
:104640000D460021069A197011491E464919203954
:10465000C97F0323490009181B02C918C98C11809E
:104660000C4A914213D0132292018718B88A05F0A0
:1046700042FC002802D0F87E002808D001203070CB
:1046800002466D1EA168AA401143A1602075F8BDC5
:1046900008A80000FFFF0000F0B5064685B0002026
:1046A000009001200C46844600250346471E19460B
:1046B000B940794F39420ED07849E12209182039A2
:1046C000C97FD200490009194039C98F914202D0EF
:1046D000734A914208D1401CC0B2002D01D1162866
:1046E000E4D3604600286FD10920C0013018C28988
:1046F00001201546431E01219940674B19420AD0FB
:10470000664909182039C97F490009194039C98FFC
:10471000A94200D20D46401CC0B21628EAD30020A0
:1047200001905F48854227D22946104605F0E3FBF9
:10473000002802D00F20C043A1E00127162F1BD272
:10474000791E012088405449084235D053485449C5
:10475000C0192038C07F400000194038C08F8842FF
:104760002AD0294605F0C7FB002825D00F20C043DA
:1047700000900198002827D0494B0120194616289F
:1047800026D2484D82005219803AD26F12071CD5AA
:10479000451E0122AA40404D2A4216D03F4A121817
:1047A000203AD27F52001219403AD28F9A420CD04E
:1047B000994204D1114608E07F1CFFB2BEE78A424D
:1047C00003D01020C0435AE062E0401CC0B2D6E7DC
:1047D000042001903248814216D00020092302466D
:1047E000DB014500AD19ED186D8A8D4207D14000FF
:1047F0008019C018408B001D80B2019004E0401C5D
:10480000002A01D10428ECDB012500200390691E59
:10481000012088402049084233D0132080013018FD
:10482000C17D427E007E49065206090E120E4006E8
:104830008918000E09180198081880B2FCF744FF87
:10484000194905F0E5FD1949FCF724FE02901348CB
:104850004719203FF87F400000194038C08FFCF70F
:1048600033FF029905F0AAFD0BD2F87F4000001932
:104870004038C18F0A48814203D01120C0430090C4
:1048800006E06D1C0398EDB2002801D1162DBED3B1
:10489000009805B0F0BD0000EF79120074A7000089
:1048A000FFFF0000B4A700000000C84200007A44E7
:1048B0007FB504461C480D46002202AE0290B05C53
:1048C000A054521C042AFADB3D20002101910090E3
:1048D00008226946201DFBF783FE286810380290E5
:1048E0000020315C2218401C11730428F9DB03AA54
:1048F0002046296803F05AFB002203A928688B5C34
:104900000619101D521C3354022AF7DB0020014601
:104910002A681319821D401C99540228F8DB286864
:10492000083028607FBD00000008040100207047A7
:10493000F8B50746184905F06BFD064639460846A6
:1049400005F066FD154905F063FD05461449384636
:1049500004F036FF134905F05BFD04468121C905CB
:10496000384604F02DFF104905F052FD214605F0B0
:10497000DFFC294605F0DCFC314605F0D9FC0B498B
:1049800005F0D6FC0A4905F043FD05F0B9FAFCF73D
:1049900057FE80B2F8BD00005A8E863C3767D9B802
:1049A00000004040DFE0C234598207B06A92E43E22
:1049B00000007A44FCB59C46079C0023089F2370A6
:1049C0003B700D681C4601AE0319EB5C3355641C4B
:1049D000022CF9DB019B00936B461C88099B644504
:1049E0001C6004D91F210798C9430170FCBD012335
:1049F00007E00D685E1E2D18AD5DD618203EF577D8
:104A00005B1CA342F5D990783870086800190860DB
:104A1000FCBD000070B50D4B092659182039CB7F1D
:104A2000F6015C002418A419258D0124954202D0BA
:104A3000074D45195C55C97F4900091889190A8530
:104A4000132189014018847670BD000074A700000E
:104A5000C5040000F8B50446132080010221201887
:104A6000C17501210176052141768E4818228C49B5
:104A70002018FBF7B5FD00200F239B0142001219FF
:104A8000D2188949401C11815428F7DB0F2080017E
:104A90002118864A01200A816423FF2580028B8425
:104AA0002D3520180580E125ED008583804E068791
:104AB0004A81FF26CB842D364680C5837C4E4687AF
:104AC0008A81FF260B852D3686800584784E868761
:104AD000CA81FF264B852D36C6804584744EC68715
:104AE0004A84FF26CB872D3646831126B601C5861C
:104AF0006F4FA61977820A83FF278B862D3707828F
:104B000085856B4F37814A83FF27CB862D374782B8
:104B1000C585674F77810B82FF278A852D370781EF
:104B20008584634F3780BF10B7834B82FF27CA85C8
:104B30002D374781C5845E4F7780BF10F7838B8206
:104B4000FF270A862D3787810585594FB780BF100B
:104B50003784CA82FF274B862D37C7814585544F3E
:104B6000F7800A84FF278B872D3707838586504F70
:104B700037828B83FF270A872D37878205864C4F24
:104B8000B781BF103785CB834A87FF212D31C18282
:104B90004586B800F08142497120C00077854022E7
:104BA00018312018FBF704FB00263046FCF784FD83
:104BB0000746404905F02CFC3F4905F0B9FB01468A
:104BC000700102190720C0011518296138463B49B8
:104BD00005F01EFCE8603846394905F019FCA8606C
:104BE0003846384905F014FC374905F0A1FB6861E7
:104BF00038460121FCF7ACFDE861286238463349AC
:104C000005F006FC761C6862022ECEDB0020264BE7
:104C10001127BF0141000919C919401C0B860E2834
:104C2000F8DB0921C90121486118C88100200F253E
:104C30000882AD0142001219521912899A4203D01A
:104C40000E8AB24200D90A82401C5428F2DB0125A8
:104C50002E46691E304688401D4908420ED028461F
:104C600003F068F901461B4840192038C07F400016
:104C70000019C019C28D2046FFF7CCFE6D1CEDB2A5
:104C8000162DE6D300201321890122185218401C4A
:104C900096710E28F9DB2046FFF74CFCF8BD0000AA
:104CA000B0A6000092040000FFFF00003075000075
:104CB0007017000000003E43000082C20000C8429E
:104CC0000024F449D669494B00002A4300001041F2
:104CD000EF79120074A70000F0B51325AD01002391
:104CE000421903269375360293828619336703248B
:104CF000240204196367032636028619B367032466
:104D000024020419E36707260024F601861934609B
:104D100021460724E401041961600926F6010A49C5
:104D20008419A181094C00214F003F18BF197C85CF
:104D300047187F19491CBB710E29F5DB9376D37692
:104D400066201077F0BD000030750000FFFF000006
:104D5000F0B585B00E46054600200A991C4608604D
:104D6000182E02D22420C04303E0964204D9252005
:104D7000C043187005B0F0BD002002AF295C395463
:104D8000401C0428FADB24490298884204D0401CC5
:104D900002D02120C043ECE70822291D6846FBF71A
:104DA0001FFC00993D2201984A40024305D0C943A7
:104DB000014302D02220C0430CE000202918097BC7
:104DC0003954401C0428F9DB02981830B04203D053
:104DD0002720C0432070CDE7314603AA0839284672
:104DE00003F0E4F86846017BA8192038027F91425D
:104DF0000AD16946497B427F914205D1817F0029D2
:104E000002D1C07F002802D02320C043E2E70A98E5
:104E1000102101600020DDE70008040108B50090C2
:104E2000684602F00CF8009808BD70B504461D46AF
:104E300063201646C0430B00FEF722FD0B0C0D1C31
:104E4000070C140C0C0C232B0C002A463146204670
:104E500001F03EF970BD20462A463146683000F028
:104E60000EFD70BD2046FF302A463146B13002F0BB
:104E70005FFA70BD20462A4631462C3002F0D6F942
:104E800070BD2046FF302A463146493001F069FCAA
:104E900070BD2046FF302A463146E13001F0CFF99F
:104EA00070BD0000F0B500219FB005460791169136
:104EB00008461791830019AA401CD1500628F9DB37
:104EC00000200B900A9008A918900870087103211F
:104ED000090269180691461E88617708052128464F
:104EE00000F00AFA0521C9016C1800282AD0606C6C
:104EF0004000000E26D1E81DFF30FA3047690669F0
:104F000018AA09A908A86B4607C32846FF303246ED
:104F10003B46B13001F03AFD08A80078002101912C
:104F2000009032463B460C21284600F049FB08A879
:104F3000007900210191009032463B460D21284620
:104F400000F03EFB0321284600F0D6F900280ED0E1
:104F5000606C4000000E0AD117AA16A907A86B467C
:104F600007C32846E36A226B616B01F0CDF801218B
:104F7000284600F0C1F9002825D0606C4000000EE2
:104F800021D1E06B226C40000BAB19A9000E00D0C0
:104F90000120039202900593049108A801790078FA
:104FA0000090019128466830179B169A079900F0E7
:104FB00015FD0B9800210191009032463B461221CD
:104FC000284601F095FF0221284600F095F90028B7
:104FD00045D0606C4000000E41D10EA801900CA895
:104FE000009014AB12AA10A902A80EC0284619AA54
:104FF0002C30189B0B9901F003FA0D990C98019134
:10500000009032463B460121284601F071FF0F997E
:105010000E980191009032463B460221284601F04D
:1050200067FF109811990191009032463B46032189
:10503000284601F05DFF13991298019100903246C5
:105040003B460421284601F053FF1599149801911D
:10505000009032463B461521284601F049FF0921C0
:10506000284600F049F9002822D0606C4000000E6C
:105070001ED1EB1DFF33FA33D9689868059104906F
:105080006A22525BA36B009001A80EC02846FF3035
:1050900032463B464930216B01F09CFB0A900021CF
:1050A000009001910E212846059B049A01F020FFF3
:1050B0000A21284600F020F9002818D0606C400032
:1050C000000E14D1E81DFF30FA30C7688668E36A25
:1050D000216B20380A9A01F0CFF800210790019146
:1050E000009032463B460F21284601F001FF354F24
:1050F000032678793602400040198019C18E324863
:10510000814210D00698007840070CD5206B0090A3
:105110000021E81D0191FF30FA30C3688268062142
:10512000284601F0E5FEB879400040198019C18E8B
:105130002548814210D006980078C0070CD0A06A9C
:105140000090002128460191FF308130C36F826FAB
:105150000721284601F0CCFEF8794000401980195B
:10516000C18E194881420FD00698007880070BD570
:10517000E06A00900021E81D0191FF30FA300CC870
:105180000821284601F0B4FE387A40004019801901
:10519000C18E0D48814210D00698007800070CD5CA
:1051A000606B00900021E81D0191FF30FA304369E7
:1051B00002690921284601F09BFE0699002008603B
:1051C0001FB0F0BD74A70000FFFF0000F0B585B070
:1051D000154604461E4600220A9800920B00FEF770
:1051E0004FFB0B4130440741384141414C55410090
:1051F00001216A4611712778034601AA29463846DB
:1052000001F013FD01271034009009E0012F05D1B2
:105210006B4632462946204600F0C1FA7F1CFFB299
:10522000684600798742F1D969460098088102985A
:105230000390002003A90A5C2A54401C0228FADBD0
:1052400010E00346204632462946683000F06EFDE5
:1052500007E003462046FF3032462946B13001F0D0
:1052600002FC0090009805B0F0BD0346204632468F
:1052700029462C3001F0F0F9F3E703462046FF30D1
:1052800032462946493001F021FBEAE70346204631
:10529000FF3032462946E13001F026F8E1E7000010
:1052A000F0B5134C05276418203CE67FFF01B600DB
:1052B0003618F619059D766C1660E27F2326D2001B
:1052C00012183601B658FF32FF320232526B1E609E
:1052D0005A60084BE27FC318D25C2A700322120284
:1052E00080180123491E42698B409A434261F0BDF8
:1052F00074A7000003030000F8B50246481E01250C
:1053000085401B480026054230D01A480324401827
:105310002038C07F24024000801803195B8B164F91
:10532000BB4223D0134F4B000A37DF19403F3E23C7
:105330001419FB5EA269934318D10E4A1E3252180B
:10534000203A1F215156226891430FD10D21890126
:105350004718F88B798A401C80B2FBF7A2F9F983D1
:10536000002903D1A06901262843A0613046F8BD79
:105370001703000008A70000FFFF0000032212022D
:10538000801840690122491E8A40104000D0012047
:1053900070470000F8B5064601256A1E01203B4B08
:1053A0000024904018426BD039480322401920381D
:1053B000C07F12024000801900908018478B35484A
:1053C000BC4687425CD00120431E012199402F4BEF
:1053D000194216D02E4F6B000A37DF19403F3E238B
:1053E000FB5E0B420DD02A492A4B09182039C97F90
:1053F000490089198918498B994202D0A14200D9E4
:105400000C46401CC0B20B28DED301214B1E0120EC
:105410009840214B184215D01D4B1E335F19203F79
:105420001F23FB5603420DD01C481A4B401820384E
:10543000C07F400080198018C08C984202D0A042E2
:1054400000D90446491CC9B21929DFD3002C17D052
:10545000674621466046FBF724F901466143791A05
:105460000904090C07D0E3076208DB0FD2188A424F
:1054700001D8401C80B20D220099920189184882FF
:105480006D1CEDB20B2D88D3F8BD00001703000092
:1054900008A70000FFFF00000F20E00008A80000A0
:1054A000F0B50D250021AD010F4A032424024B0065
:1054B0001B185F190126BE8200261B193E84491C59
:1054C0009A830629F3DB00214B001B181B19491C8A
:1054D0001A850829F8DB00214B001B181B19491CF1
:1054E0001A870E29F8DBF0BDFFFF000070B50446F7
:1054F0001D4663201646C0430B00FEF7C1F90B0C96
:105500000D1C070C140C0C0C232B0C002A463146E6
:10551000204600F041FE70BD20462A4631466830E4
:1055200001F0E2FD70BD2046FF302A463146B13021
:1055300001F0E7FA70BD20462A4631462C3001F0D2
:10554000BDF870BD2046FF302A463146493001F093
:10555000EBF970BD2046FF302A463146E13000F0BD
:10556000F0FE70BDF0B5154C6718203FFE7FF400CB
:105570002518FF24F1346459FF3581356D6F54408F
:105580005D402C4318D0B50005262D18F601AD1945
:10559000059C6C62FC7FFF25E4002418F1352A513C
:1055A000FF34813403221202801863670123491EED
:1055B00002688B401A430260F0BD000008A800009A
:1055C000F0B51FB4044617460E460A98FCF77CF85F
:1055D000144905228D19203DE97FD201890009195E
:1055E00089184864E87F2322C0000019120103993A
:1055F0001750FF30FF30023041630B9804F080FCFD
:10560000FCF71EF8084AE97FA2188854032000021C
:1056100020180122761E4169B2401143416105B054
:10562000F0BD000074A70000030300000A4610B597
:105630001649531E092B09D8154903238918203907
:10564000C97F1B0249000918C918498B1300FEF7CE
:1056500017F90B090A1307090E09090909170900A7
:1056600000F0BAFD10BD683000F03CFC10BDFF300A
:10567000B13001F089FA10BD2C3001F04BF810BDAB
:10568000FF30E13000F078FE10BD0000FFFF0000A9
:1056900008A70000F0B5254B5B18203BDB7F5B00C3
:1056A0001C1803231B02E318DA8601231F465D1E24
:1056B0003C46AC401E4D2C4214D01E4E4D00AE193F
:1056C000403E3E25755F25420CD01B4CE418203C23
:1056D000E47F64002518032424022C19658B95426D
:1056E00000D962835B1CDBB20B2BE0D301235D1E70
:1056F0003C46AC40114D2C4213D0114E8D00AD19DB
:10570000803DED6F25420CD00E4CE418203CE47F28
:1057100064002518032424022D19EC8C944200D92E
:10572000EA845B1CDBB2192BE1D3F0BD74A7000047
:10573000170300008AA7000008A700000F20E00060
:10574000B4A7000008A8000010B50B4B00218A0088
:105750009C581218491C14620329F8DB021D012110
:10576000007F002304E08C00A418491CC9B2A36088
:105770008142F8D910BD000070AA00007EB50C6807
:1057800000236D46C618A65DEE545B1C0C2BF9DB9E
:105790006D4619CD19C208680C3008607EBD7EB513
:1057A0001C680C34944202D9521C1A607EBD15C884
:1057B0006D4615C500206A46145C0E181D68401C15
:1057C000AC550C28F8DB18680C3018607EBD10B59D
:1057D0000321002301763F24194624068A008450C1
:1057E0000C32491C83500329F8DB10BDF3B587B098
:1057F0000E4600246F46A50070591C4904F008FEAF
:10580000641C7851032CF6DB684602F04DFF00243F
:10581000A5007859014604F0FBFD0146069004F00E
:10582000F7FD069904F084FD03A948510698641C0D
:105830007851032CECDB084602F042FF002403AF52
:10584000A50068464159785904F072FE0121FBF722
:105850007FFF72597F21C9058A4200D10846079906
:10586000641C4851032CEBDB09B0F0BDDB0FC93FD2
:1058700008B50090684601F0AFFB009808BDF7B589
:1058800088B0064602A906A801910090307803ABC3
:10589000099901F0A9F96846007B00283ED13046FD
:1058A000C430059098380490A230019012383546E3
:1058B00001248035871CD43600902300FDF7E0FFDB
:1058C000082A05070D13191F252A059A1EE002A9AB
:1058D000099802F0C7FB28641CE002A9049A099801
:1058E00002F001FE16E002A9019A099802F01AFEE0
:1058F00010E002A9009A099802F026FE0AE03A4652
:1059000002A9099802F06EFB04E0324602A9099848
:1059100001F030FB641CE4B2082CCED369460C20A5
:1059200008560BB0F0BD0000FFB581B00C9E0546D7
:105930001A40C03584190B99002A45D0B3001E18AF
:105940007F27FF052248F3693A4683420AD1104671
:1059500004F0EEFD014604F05BFDFD21890504F035
:1059600057FD02461B49104604F052FD1A4904F047
:10597000DFFC029904F04CFD029904F0D9FC009080
:10598000F168706804F0D4FD009904F017FD0CD3A1
:10599000F0684000000E08D001200A998007002915
:1059A00007D00021E17605B0F0BD287BE0763846CF
:1059B000F9E7E17EFF2901D2491CE1762A7BC9B2D1
:1059C0009142F0D30248EEE7287BE0760020EAE738
:1059D00000004040CDCC4C3ECDCCCC3DFFB58BB093
:1059E00006461D461746199C4068534904F010FDB1
:1059F00007902B463A4630460C9900F0DDFA2060BD
:105A00000097019515A90EC9304600F0F7F9002856
:105A10002DD00127B800851968684000000E01D11B
:105A200020686860E8684000000E09D1686807993E
:105A300004F07EFD216804F043FD01D22068E86097
:105A400000972A1D00233046216800F077F8E868A7
:105A50004000000E07D02A4600970C320123304642
:105A6000216800F06BF87F1CFFB2032FD2D3169889
:105A7000002823D1012500200090A800871979680B
:105A8000206804F01DFD04D9F968206804F096FC34
:105A900001D8012000902B4622683046079900F07B
:105AA0000DF9019002953046159B149A0799FFF75E
:105AB0003BFF6D1CEDB2F861032DDCD30127BD0067
:105AC000A819009040684100090E04D003A9691884
:105AD0008039C86704E003A8281880382168C167A6
